{
  "address": "0xFdC4Af2676692C1589F0573D3B817111Fc9f0332",
  "abi": [
    {
      "inputs": [
        {
          "internalType": "address",
          "name": "admin",
          "type": "address"
        },
        {
          "internalType": "address",
          "name": "_treasury",
          "type": "address"
        },
        {
          "internalType": "address[]",
          "name": "operators",
          "type": "address[]"
        },
        {
          "internalType": "address",
          "name": "trustedForwarder",
          "type": "address"
        },
        {
          "internalType": "address",
          "name": "_teaVesting",
          "type": "address"
        },
        {
          "internalType": "address",
          "name": "_teaToken",
          "type": "address"
        },
        {
          "internalType": "address[]",
          "name": "presaleTokens",
          "type": "address[]"
        }
      ],
      "stateMutability": "nonpayable",
      "type": "constructor"
    },
    {
      "inputs": [],
      "name": "AccessControlBadConfirmation",
      "type": "error"
    },
    {
      "inputs": [
        {
          "internalType": "address",
          "name": "account",
          "type": "address"
        },
        {
          "internalType": "bytes32",
          "name": "neededRole",
          "type": "bytes32"
        }
      ],
      "name": "AccessControlUnauthorizedAccount",
      "type": "error"
    },
    {
      "inputs": [
        {
          "internalType": "address",
          "name": "target",
          "type": "address"
        }
      ],
      "name": "AddressEmptyCode",
      "type": "error"
    },
    {
      "inputs": [
        {
          "internalType": "address",
          "name": "account",
          "type": "address"
        }
      ],
      "name": "AddressInsufficientBalance",
      "type": "error"
    },
    {
      "inputs": [],
      "name": "AddressesMismatch",
      "type": "error"
    },
    {
      "inputs": [],
      "name": "ClaimCooldownNotPassed",
      "type": "error"
    },
    {
      "inputs": [],
      "name": "ECDSAInvalidSignature",
      "type": "error"
    },
    {
      "inputs": [
        {
          "internalType": "uint256",
          "name": "length",
          "type": "uint256"
        }
      ],
      "name": "ECDSAInvalidSignatureLength",
      "type": "error"
    },
    {
      "inputs": [
        {
          "internalType": "bytes32",
          "name": "s",
          "type": "bytes32"
        }
      ],
      "name": "ECDSAInvalidSignatureS",
      "type": "error"
    },
    {
      "inputs": [],
      "name": "FailedInnerCall",
      "type": "error"
    },
    {
      "inputs": [],
      "name": "InvalidArrayLengths",
      "type": "error"
    },
    {
      "inputs": [
        {
          "internalType": "uint256",
          "name": "proofCalculation",
          "type": "uint256"
        },
        {
          "internalType": "uint256",
          "name": "contractCalculation",
          "type": "uint256"
        }
      ],
      "name": "InvalidCalculationReward",
      "type": "error"
    },
    {
      "inputs": [
        {
          "internalType": "uint256",
          "name": "id",
          "type": "uint256"
        }
      ],
      "name": "InvalidId",
      "type": "error"
    },
    {
      "inputs": [],
      "name": "InvalidShortString",
      "type": "error"
    },
    {
      "inputs": [
        {
          "internalType": "uint256",
          "name": "id",
          "type": "uint256"
        }
      ],
      "name": "LockedPeriodNotPassed",
      "type": "error"
    },
    {
      "inputs": [
        {
          "internalType": "uint256",
          "name": "id",
          "type": "uint256"
        }
      ],
      "name": "NeedToUnstakeFirst",
      "type": "error"
    },
    {
      "inputs": [],
      "name": "NoZeroAddress",
      "type": "error"
    },
    {
      "inputs": [],
      "name": "NoZeroAmount",
      "type": "error"
    },
    {
      "inputs": [],
      "name": "NotEnoughLockedTokens",
      "type": "error"
    },
    {
      "inputs": [
        {
          "internalType": "uint256",
          "name": "id",
          "type": "uint256"
        }
      ],
      "name": "NothingToUnstake",
      "type": "error"
    },
    {
      "inputs": [],
      "name": "OnlyValidToken",
      "type": "error"
    },
    {
      "inputs": [],
      "name": "ReentrancyGuardReentrantCall",
      "type": "error"
    },
    {
      "inputs": [
        {
          "internalType": "address",
          "name": "token",
          "type": "address"
        }
      ],
      "name": "SafeERC20FailedOperation",
      "type": "error"
    },
    {
      "inputs": [],
      "name": "StakingAlreadyInitialized",
      "type": "error"
    },
    {
      "inputs": [],
      "name": "StakingFinished",
      "type": "error"
    },
    {
      "inputs": [],
      "name": "StakingNotStarted",
      "type": "error"
    },
    {
      "inputs": [
        {
          "internalType": "string",
          "name": "str",
          "type": "string"
        }
      ],
      "name": "StringTooLong",
      "type": "error"
    },
    {
      "inputs": [],
      "name": "UserAlreadyStakedWithThisToken",
      "type": "error"
    },
    {
      "inputs": [],
      "name": "WrongDecimalNumber",
      "type": "error"
    },
    {
      "anonymous": false,
      "inputs": [],
      "name": "EIP712DomainChanged",
      "type": "event"
    },
    {
      "anonymous": false,
      "inputs": [
        {
          "indexed": true,
          "internalType": "bytes32",
          "name": "role",
          "type": "bytes32"
        },
        {
          "indexed": true,
          "internalType": "bytes32",
          "name": "previousAdminRole",
          "type": "bytes32"
        },
        {
          "indexed": true,
          "internalType": "bytes32",
          "name": "newAdminRole",
          "type": "bytes32"
        }
      ],
      "name": "RoleAdminChanged",
      "type": "event"
    },
    {
      "anonymous": false,
      "inputs": [
        {
          "indexed": true,
          "internalType": "bytes32",
          "name": "role",
          "type": "bytes32"
        },
        {
          "indexed": true,
          "internalType": "address",
          "name": "account",
          "type": "address"
        },
        {
          "indexed": true,
          "internalType": "address",
          "name": "sender",
          "type": "address"
        }
      ],
      "name": "RoleGranted",
      "type": "event"
    },
    {
      "anonymous": false,
      "inputs": [
        {
          "indexed": true,
          "internalType": "bytes32",
          "name": "role",
          "type": "bytes32"
        },
        {
          "indexed": true,
          "internalType": "address",
          "name": "account",
          "type": "address"
        },
        {
          "indexed": true,
          "internalType": "address",
          "name": "sender",
          "type": "address"
        }
      ],
      "name": "RoleRevoked",
      "type": "event"
    },
    {
      "anonymous": false,
      "inputs": [
        {
          "indexed": true,
          "internalType": "address",
          "name": "staker",
          "type": "address"
        },
        {
          "indexed": true,
          "internalType": "uint256",
          "name": "id",
          "type": "uint256"
        },
        {
          "indexed": true,
          "internalType": "address",
          "name": "token",
          "type": "address"
        },
        {
          "indexed": false,
          "internalType": "uint256",
          "name": "amount",
          "type": "uint256"
        }
      ],
      "name": "Staked",
      "type": "event"
    },
    {
      "anonymous": false,
      "inputs": [
        {
          "indexed": true,
          "internalType": "uint256",
          "name": "starDate",
          "type": "uint256"
        },
        {
          "indexed": true,
          "internalType": "uint256",
          "name": "endDate",
          "type": "uint256"
        },
        {
          "indexed": true,
          "internalType": "uint256",
          "name": "totalAllocation",
          "type": "uint256"
        },
        {
          "indexed": false,
          "internalType": "uint256",
          "name": "allocationPerSecond",
          "type": "uint256"
        }
      ],
      "name": "StakingInitialized",
      "type": "event"
    },
    {
      "anonymous": false,
      "inputs": [
        {
          "indexed": true,
          "internalType": "address",
          "name": "staker",
          "type": "address"
        },
        {
          "indexed": true,
          "internalType": "uint256",
          "name": "id",
          "type": "uint256"
        },
        {
          "indexed": false,
          "internalType": "uint256",
          "name": "amount",
          "type": "uint256"
        }
      ],
      "name": "Unstaked",
      "type": "event"
    },
    {
      "anonymous": false,
      "inputs": [
        {
          "indexed": true,
          "internalType": "uint256",
          "name": "timestamp",
          "type": "uint256"
        },
        {
          "indexed": false,
          "internalType": "uint256",
          "name": "totalStakedTokens",
          "type": "uint256"
        },
        {
          "indexed": false,
          "internalType": "uint256",
          "name": "rewardPerShare",
          "type": "uint256"
        }
      ],
      "name": "UpdatedShareReward",
      "type": "event"
    },
    {
      "anonymous": false,
      "inputs": [
        {
          "indexed": true,
          "internalType": "address",
          "name": "staker",
          "type": "address"
        },
        {
          "indexed": true,
          "internalType": "address",
          "name": "token",
          "type": "address"
        },
        {
          "indexed": false,
          "internalType": "uint256",
          "name": "stakedTokens",
          "type": "uint256"
        },
        {
          "indexed": false,
          "internalType": "uint256",
          "name": "reward",
          "type": "uint256"
        }
      ],
      "name": "Withdrawal",
      "type": "event"
    },
    {
      "inputs": [],
      "name": "ACCUMULATED_PRECISION",
      "outputs": [
        {
          "internalType": "uint256",
          "name": "",
          "type": "uint256"
        }
      ],
      "stateMutability": "view",
      "type": "function"
    },
    {
      "inputs": [],
      "name": "DEFAULT_ADMIN_ROLE",
      "outputs": [
        {
          "internalType": "bytes32",
          "name": "",
          "type": "bytes32"
        }
      ],
      "stateMutability": "view",
      "type": "function"
    },
    {
      "inputs": [],
      "name": "ONE_YEAR",
      "outputs": [
        {
          "internalType": "uint256",
          "name": "",
          "type": "uint256"
        }
      ],
      "stateMutability": "view",
      "type": "function"
    },
    {
      "inputs": [],
      "name": "OPERATOR_ROLE",
      "outputs": [
        {
          "internalType": "bytes32",
          "name": "",
          "type": "bytes32"
        }
      ],
      "stateMutability": "view",
      "type": "function"
    },
    {
      "inputs": [],
      "name": "UNSTAKE_TYPEHASH",
      "outputs": [
        {
          "internalType": "bytes32",
          "name": "",
          "type": "bytes32"
        }
      ],
      "stateMutability": "view",
      "type": "function"
    },
    {
      "inputs": [],
      "name": "VIP_AMOUNT",
      "outputs": [
        {
          "internalType": "uint256",
          "name": "",
          "type": "uint256"
        }
      ],
      "stateMutability": "view",
      "type": "function"
    },
    {
      "inputs": [],
      "name": "allocationPerSecond",
      "outputs": [
        {
          "internalType": "uint256",
          "name": "",
          "type": "uint256"
        }
      ],
      "stateMutability": "view",
      "type": "function"
    },
    {
      "inputs": [
        {
          "internalType": "address",
          "name": "token",
          "type": "address"
        }
      ],
      "name": "checkTokenValidity",
      "outputs": [
        {
          "internalType": "bool",
          "name": "",
          "type": "bool"
        }
      ],
      "stateMutability": "view",
      "type": "function"
    },
    {
      "inputs": [],
      "name": "counter",
      "outputs": [
        {
          "internalType": "uint256",
          "name": "",
          "type": "uint256"
        }
      ],
      "stateMutability": "view",
      "type": "function"
    },
    {
      "inputs": [],
      "name": "eip712Domain",
      "outputs": [
        {
          "internalType": "bytes1",
          "name": "fields",
          "type": "bytes1"
        },
        {
          "internalType": "string",
          "name": "name",
          "type": "string"
        },
        {
          "internalType": "string",
          "name": "version",
          "type": "string"
        },
        {
          "internalType": "uint256",
          "name": "chainId",
          "type": "uint256"
        },
        {
          "internalType": "address",
          "name": "verifyingContract",
          "type": "address"
        },
        {
          "internalType": "bytes32",
          "name": "salt",
          "type": "bytes32"
        },
        {
          "internalType": "uint256[]",
          "name": "extensions",
          "type": "uint256[]"
        }
      ],
      "stateMutability": "view",
      "type": "function"
    },
    {
      "inputs": [],
      "name": "emergencyWithdraw",
      "outputs": [],
      "stateMutability": "nonpayable",
      "type": "function"
    },
    {
      "inputs": [],
      "name": "endDate",
      "outputs": [
        {
          "internalType": "uint256",
          "name": "",
          "type": "uint256"
        }
      ],
      "stateMutability": "view",
      "type": "function"
    },
    {
      "inputs": [
        {
          "internalType": "bytes32",
          "name": "role",
          "type": "bytes32"
        }
      ],
      "name": "getRoleAdmin",
      "outputs": [
        {
          "internalType": "bytes32",
          "name": "",
          "type": "bytes32"
        }
      ],
      "stateMutability": "view",
      "type": "function"
    },
    {
      "inputs": [
        {
          "internalType": "address",
          "name": "user",
          "type": "address"
        }
      ],
      "name": "getTotalUserStakedTokens",
      "outputs": [
        {
          "internalType": "uint256",
          "name": "totalAmount",
          "type": "uint256"
        }
      ],
      "stateMutability": "view",
      "type": "function"
    },
    {
      "inputs": [
        {
          "internalType": "address",
          "name": "user",
          "type": "address"
        }
      ],
      "name": "getUserIds",
      "outputs": [
        {
          "internalType": "uint256[]",
          "name": "",
          "type": "uint256[]"
        }
      ],
      "stateMutability": "view",
      "type": "function"
    },
    {
      "inputs": [
        {
          "internalType": "bytes32",
          "name": "role",
          "type": "bytes32"
        },
        {
          "internalType": "address",
          "name": "account",
          "type": "address"
        }
      ],
      "name": "grantRole",
      "outputs": [],
      "stateMutability": "nonpayable",
      "type": "function"
    },
    {
      "inputs": [
        {
          "internalType": "bytes32",
          "name": "role",
          "type": "bytes32"
        },
        {
          "internalType": "address",
          "name": "account",
          "type": "address"
        }
      ],
      "name": "hasRole",
      "outputs": [
        {
          "internalType": "bool",
          "name": "",
          "type": "bool"
        }
      ],
      "stateMutability": "view",
      "type": "function"
    },
    {
      "inputs": [
        {
          "internalType": "bytes32",
          "name": "structHash",
          "type": "bytes32"
        }
      ],
      "name": "hashTypedDataV4",
      "outputs": [
        {
          "internalType": "bytes32",
          "name": "",
          "type": "bytes32"
        }
      ],
      "stateMutability": "view",
      "type": "function"
    },
    {
      "inputs": [
        {
          "internalType": "uint256",
          "name": "newTotalAllocation",
          "type": "uint256"
        },
        {
          "internalType": "uint256",
          "name": "newRewardDistributionStartTime",
          "type": "uint256"
        }
      ],
      "name": "initializeStaking",
      "outputs": [],
      "stateMutability": "nonpayable",
      "type": "function"
    },
    {
      "inputs": [
        {
          "internalType": "address",
          "name": "forwarder",
          "type": "address"
        }
      ],
      "name": "isTrustedForwarder",
      "outputs": [
        {
          "internalType": "bool",
          "name": "",
          "type": "bool"
        }
      ],
      "stateMutability": "view",
      "type": "function"
    },
    {
      "inputs": [],
      "name": "lastRewardBlockNumber",
      "outputs": [
        {
          "internalType": "uint256",
          "name": "",
          "type": "uint256"
        }
      ],
      "stateMutability": "view",
      "type": "function"
    },
    {
      "inputs": [],
      "name": "lastUpdatedTimestamp",
      "outputs": [
        {
          "internalType": "uint256",
          "name": "",
          "type": "uint256"
        }
      ],
      "stateMutability": "view",
      "type": "function"
    },
    {
      "inputs": [
        {
          "internalType": "address",
          "name": "operator",
          "type": "address"
        },
        {
          "internalType": "address",
          "name": "caller",
          "type": "address"
        }
      ],
      "name": "operatorUserNonces",
      "outputs": [
        {
          "internalType": "uint256",
          "name": "nonce",
          "type": "uint256"
        }
      ],
      "stateMutability": "view",
      "type": "function"
    },
    {
      "inputs": [
        {
          "internalType": "bytes32",
          "name": "role",
          "type": "bytes32"
        },
        {
          "internalType": "address",
          "name": "callerConfirmation",
          "type": "address"
        }
      ],
      "name": "renounceRole",
      "outputs": [],
      "stateMutability": "nonpayable",
      "type": "function"
    },
    {
      "inputs": [
        {
          "internalType": "bytes32",
          "name": "role",
          "type": "bytes32"
        },
        {
          "internalType": "address",
          "name": "account",
          "type": "address"
        }
      ],
      "name": "revokeRole",
      "outputs": [],
      "stateMutability": "nonpayable",
      "type": "function"
    },
    {
      "inputs": [],
      "name": "rewardPerShare",
      "outputs": [
        {
          "internalType": "uint256",
          "name": "",
          "type": "uint256"
        }
      ],
      "stateMutability": "view",
      "type": "function"
    },
    {
      "inputs": [
        {
          "internalType": "address[]",
          "name": "tokens",
          "type": "address[]"
        },
        {
          "internalType": "uint256[]",
          "name": "amounts",
          "type": "uint256[]"
        },
        {
          "components": [
            {
              "internalType": "address",
              "name": "token",
              "type": "address"
            },
            {
              "internalType": "address",
              "name": "from",
              "type": "address"
            },
            {
              "internalType": "address",
              "name": "to",
              "type": "address"
            },
            {
              "internalType": "uint256",
              "name": "deadline",
              "type": "uint256"
            },
            {
              "internalType": "uint8",
              "name": "v",
              "type": "uint8"
            },
            {
              "internalType": "bytes32",
              "name": "r",
              "type": "bytes32"
            },
            {
              "internalType": "bytes32",
              "name": "s",
              "type": "bytes32"
            }
          ],
          "internalType": "struct IStruct.OffChainStruct[]",
          "name": "offChainData",
          "type": "tuple[]"
        }
      ],
      "name": "stake",
      "outputs": [],
      "stateMutability": "nonpayable",
      "type": "function"
    },
    {
      "inputs": [
        {
          "internalType": "uint256",
          "name": "id",
          "type": "uint256"
        }
      ],
      "name": "stakes",
      "outputs": [
        {
          "internalType": "bool",
          "name": "vip",
          "type": "bool"
        },
        {
          "internalType": "address",
          "name": "token",
          "type": "address"
        },
        {
          "internalType": "uint256",
          "name": "stakedTokens",
          "type": "uint256"
        },
        {
          "internalType": "uint256",
          "name": "availableTokens",
          "type": "uint256"
        },
        {
          "internalType": "uint256",
          "name": "rewardDebt",
          "type": "uint256"
        },
        {
          "internalType": "uint256",
          "name": "claimCooldown",
          "type": "uint256"
        },
        {
          "internalType": "uint256",
          "name": "lockedPeriod",
          "type": "uint256"
        }
      ],
      "stateMutability": "view",
      "type": "function"
    },
    {
      "inputs": [],
      "name": "stakingRun",
      "outputs": [
        {
          "internalType": "bool",
          "name": "",
          "type": "bool"
        }
      ],
      "stateMutability": "view",
      "type": "function"
    },
    {
      "inputs": [],
      "name": "startDate",
      "outputs": [
        {
          "internalType": "uint256",
          "name": "",
          "type": "uint256"
        }
      ],
      "stateMutability": "view",
      "type": "function"
    },
    {
      "inputs": [
        {
          "internalType": "bytes4",
          "name": "interfaceId",
          "type": "bytes4"
        }
      ],
      "name": "supportsInterface",
      "outputs": [
        {
          "internalType": "bool",
          "name": "",
          "type": "bool"
        }
      ],
      "stateMutability": "view",
      "type": "function"
    },
    {
      "inputs": [],
      "name": "teaToken",
      "outputs": [
        {
          "internalType": "address",
          "name": "",
          "type": "address"
        }
      ],
      "stateMutability": "view",
      "type": "function"
    },
    {
      "inputs": [],
      "name": "teaVesting",
      "outputs": [
        {
          "internalType": "address",
          "name": "",
          "type": "address"
        }
      ],
      "stateMutability": "view",
      "type": "function"
    },
    {
      "inputs": [],
      "name": "totalAllocation",
      "outputs": [
        {
          "internalType": "uint256",
          "name": "",
          "type": "uint256"
        }
      ],
      "stateMutability": "view",
      "type": "function"
    },
    {
      "inputs": [],
      "name": "totalStakedTea",
      "outputs": [
        {
          "internalType": "uint256",
          "name": "",
          "type": "uint256"
        }
      ],
      "stateMutability": "view",
      "type": "function"
    },
    {
      "inputs": [],
      "name": "totalStakedTokens",
      "outputs": [
        {
          "internalType": "uint256",
          "name": "",
          "type": "uint256"
        }
      ],
      "stateMutability": "view",
      "type": "function"
    },
    {
      "inputs": [],
      "name": "treasury",
      "outputs": [
        {
          "internalType": "address",
          "name": "",
          "type": "address"
        }
      ],
      "stateMutability": "view",
      "type": "function"
    },
    {
      "inputs": [],
      "name": "trustedForwarder",
      "outputs": [
        {
          "internalType": "address",
          "name": "",
          "type": "address"
        }
      ],
      "stateMutability": "view",
      "type": "function"
    },
    {
      "inputs": [
        {
          "components": [
            {
              "internalType": "address",
              "name": "user",
              "type": "address"
            },
            {
              "internalType": "address",
              "name": "operator",
              "type": "address"
            },
            {
              "internalType": "uint256[]",
              "name": "ids",
              "type": "uint256[]"
            },
            {
              "internalType": "uint256[]",
              "name": "rewardsWithLoyalty",
              "type": "uint256[]"
            },
            {
              "internalType": "uint256",
              "name": "nonce",
              "type": "uint256"
            },
            {
              "internalType": "uint256",
              "name": "deadline",
              "type": "uint256"
            },
            {
              "internalType": "uint8",
              "name": "v",
              "type": "uint8"
            },
            {
              "internalType": "bytes32",
              "name": "r",
              "type": "bytes32"
            },
            {
              "internalType": "bytes32",
              "name": "s",
              "type": "bytes32"
            }
          ],
          "internalType": "struct IStruct.UnstakeParam",
          "name": "unstakeParams",
          "type": "tuple"
        }
      ],
      "name": "unstake",
      "outputs": [],
      "stateMutability": "nonpayable",
      "type": "function"
    },
    {
      "inputs": [],
      "name": "updateRewardPerShare",
      "outputs": [],
      "stateMutability": "nonpayable",
      "type": "function"
    },
    {
      "inputs": [
        {
          "internalType": "uint256[]",
          "name": "ids",
          "type": "uint256[]"
        }
      ],
      "name": "withdraw",
      "outputs": [],
      "stateMutability": "nonpayable",
      "type": "function"
    }
  ],
  "transactionHash": "0x4f4cfbcf7491b697d91103284f2e5a206288e95ae1b59251326862cfb0e8b337",
  "args": [
    "0xdcd85DED75e992164C8fF0666c5a46a0944A6b2F",
    "0xD9dA072FC2441985e3D19A5A1628E121505833D9",
    [
      "0xd1AeBb1b04C242e3A5404A1Bc5F8854B711D54a7"
    ],
    "0x9ae49dD651e2ae88B8d4bD06cf3861dD39ee67C5",
    "0x9ae49dD651e2ae88B8d4bD06cf3861dD39ee67C5",
    "0x880F5e24C66BefbD8b038Fc4A66bAf35f30f0ABE",
    [
      "0xc2ab1d5240f49DB75B2ce6C1205B567791416cA1",
      "0x244bfbe555E6e415451005901dB7cAB90A71B359",
      "0x42B0C6f18BFa65b0d47cf1D9a2b65538b6417b14"
    ]
  ],
  "numDeployments": 1,
  "solcInputHash": "cda819f76112ec31a3cfd9a5d0765bf9",
  "bytecode": "0x6101e06040523480156200001257600080fd5b5060405162003b3a38038062003b3a83398101604081905262000035916200071d565b83856040518060400160405280600a8152602001695465615374616b696e6760b01b815250604051806040016040528060038152602001620312e360ec1b8152506200008c6000836200046c60201b90919060201c565b610120526200009d8160016200046c565b61014052815160208084019190912060e052815190820120610100524660a0526200012b60e05161010051604080517f8b73c3c69bb8fe3d512ecc4cf759cc79239f7b179b0ffacaa9a75d522b39400f60208201529081019290925260608201524660808201523060a082015260009060c00160405160208183030381529060405280519060200120905090565b60805250503060c052600160035560005b8151811015620001f15760006001600160a01b0316828281518110620001665762000166620007e5565b60200260200101516001600160a01b031603620001965760405163ddbadd5f60e01b815260040160405180910390fd5b620001e77f20296b01d0b6bd176f0c1e29644934c0047abf080dae43609a1bbc09e39bafdb60001b838381518110620001d357620001d3620007e5565b6020026020010151620004a560201b60201c565b506001016200013c565b50506001600160a01b0390811661016052871615806200021857506001600160a01b038616155b806200022b57506001600160a01b038416155b806200023e57506001600160a01b038316155b806200025157506001600160a01b038216155b15620002705760405163ddbadd5f60e01b815260040160405180910390fd5b6200027d600088620004a5565b506001600160a01b03808716610180528381166101a05282166101c08190526040805163313ce56760e01b815290516000929163313ce5679160048083019260209291908290030181865afa158015620002db573d6000803e3d6000fd5b505050506040513d601f19601f82011682018060405250810190620003019190620007fb565b60ff16905060005b82518110156200045d5760006001600160a01b0316838281518110620003335762000333620007e5565b60200260200101516001600160a01b031603620003635760405163ddbadd5f60e01b815260040160405180910390fd5b81838281518110620003795762000379620007e5565b60200260200101516001600160a01b031663313ce5676040518163ffffffff1660e01b8152600401602060405180830381865afa158015620003bf573d6000803e3d6000fd5b505050506040513d601f19601f82011682018060405250810190620003e59190620007fb565b60ff16146200040757604051637dd3fe3360e11b815260040160405180910390fd5b600160116000858481518110620004225762000422620007e5565b6020908102919091018101516001600160a01b03168252810191909152604001600020805460ff191691151591909117905560010162000309565b50505050505050505062000a79565b60006020835110156200048c57620004848362000559565b90506200049f565b81620004998482620008b8565b5060ff90505b92915050565b60008281526002602090815260408083206001600160a01b038516845290915281205460ff16620005505760008381526002602090815260408083206001600160a01b03861684529091529020805460ff1916600117905562000507620005a5565b6001600160a01b0316826001600160a01b0316847f2f8788117e7eff1d82e926ec794901d17c78024a50270940304540a733656f0d60405160405180910390a45060016200049f565b5060006200049f565b600080829050601f8151111562000590578260405163305a27a960e01b815260040162000587919062000984565b60405180910390fd5b80516200059d82620009d5565b179392505050565b6000620005b1620005b6565b905090565b6000366014620005c63362000612565b8015620005d35750808210155b156200060a57600036620005e88385620009fa565b620005f592829062000a1c565b620006009162000a48565b60601c9250505090565b339250505090565b60006200061f6101605190565b6001600160a01b0316826001600160a01b0316149050919050565b80516001600160a01b03811681146200065257600080fd5b919050565b634e487b7160e01b600052604160045260246000fd5b600082601f8301126200067f57600080fd5b815160206001600160401b03808311156200069e576200069e62000657565b8260051b604051601f19603f83011681018181108482111715620006c657620006c662000657565b6040529384526020818701810194908101925087851115620006e757600080fd5b6020870191505b84821015620007125762000702826200063a565b83529183019190830190620006ee565b979650505050505050565b600080600080600080600060e0888a0312156200073957600080fd5b62000744886200063a565b965062000754602089016200063a565b60408901519096506001600160401b03808211156200077257600080fd5b620007808b838c016200066d565b96506200079060608b016200063a565b9550620007a060808b016200063a565b9450620007b060a08b016200063a565b935060c08a0151915080821115620007c757600080fd5b50620007d68a828b016200066d565b91505092959891949750929550565b634e487b7160e01b600052603260045260246000fd5b6000602082840312156200080e57600080fd5b815160ff811681146200082057600080fd5b9392505050565b600181811c908216806200083c57607f821691505b6020821081036200085d57634e487b7160e01b600052602260045260246000fd5b50919050565b601f821115620008b3576000816000526020600020601f850160051c810160208610156200088e5750805b601f850160051c820191505b81811015620008af578281556001016200089a565b5050505b505050565b81516001600160401b03811115620008d457620008d462000657565b620008ec81620008e5845462000827565b8462000863565b602080601f8311600181146200092457600084156200090b5750858301515b600019600386901b1c1916600185901b178555620008af565b600085815260208120601f198616915b82811015620009555788860151825594840194600190910190840162000934565b5085821015620009745787850151600019600388901b60f8161c191681555b5050505050600190811b01905550565b60006020808352835180602085015260005b81811015620009b45785810183015185820160400152820162000996565b506000604082860101526040601f19601f8301168501019250505092915050565b805160208083015191908110156200085d5760001960209190910360031b1b16919050565b818103818111156200049f57634e487b7160e01b600052601160045260246000fd5b6000808585111562000a2d57600080fd5b8386111562000a3b57600080fd5b5050820193919092039150565b6001600160601b0319813581811691601485101562000a715780818660140360031b1b83161692505b505092915050565b60805160a05160c05160e05161010051610120516101405161016051610180516101a0516101c051612fb562000b85600039600081816104b00152818161072c01528181610a4f01528181610a9301528181611021015281816110650152818161124f01528181611350015281816115de0152818161165d01526119ea01526000818161052b01528181610b0101528181610b9801528181610c2e015281816110b80152818161115701526111e30152600081816103e9015261137301526000818161039c015281816104410152611ded01526000611825015260006117f801526000611f2c01526000611f0401526000611e5f01526000611e8901526000611eb30152612fb56000f3fe608060405234801561001057600080fd5b50600436106102535760003560e01c80637b49d06811610146578063b04e2f31116100c3578063c8c4fbcf11610087578063c8c4fbcf1461057b578063d547741f14610583578063d5a44f8614610596578063db2e21bc14610626578063f5b541a61461062e578063fbaf894c1461065557600080fd5b8063b04e2f3114610526578063b212f2831461054d578063ba5c42a414610556578063c14ffd8714610569578063c24a0f8b1461057257600080fd5b80638e43ff271161010a5780638e43ff27146104d257806391d14854146104e5578063983d95ce146104f85780639b3fbb181461050b578063a217fddf1461051e57600080fd5b80637b49d0681461042c5780637da0a8771461043f578063841ec13a1461046557806384b0196e146104905780638933b6fd146104ab57600080fd5b8063446a2ec8116101d4578063572b6c0511610198578063572b6c051461038c5780635b684cfb146103cc57806361bc221a146103db57806361d027b3146103e457806379203dc41461042357600080fd5b8063446a2ec81461033357806344958a031461033c5780634980f2881461034f5780634c313fc2146103625780635178a0f01461038257600080fd5b80632f2ff15d1161021b5780632f2ff15d146102ec578063361e940f1461030157806336568abe1461030a5780633ae732591461031d5780633cde9b631461032657600080fd5b806301ffc9a7146102585780630700cc42146102805780630b97bc86146102b557806316d3bfbb146102be578063248a9ca3146102c9575b600080fd5b61026b61026636600461269b565b61065e565b60405190151581526020015b60405180910390f35b6102a77fb89cb22cf091ea736d7376247904b200f2ad707ec01c556961bab09586165a4a81565b604051908152602001610277565b6102a7600c5481565b6102a76301e1338081565b6102a76102d73660046126c5565b60009081526002602052604090206001015490565b6102ff6102fa3660046126fa565b610695565b005b6102a7600a5481565b6102ff6103183660046126fa565b6106c0565b6102a760055481565b600f5461026b9060ff1681565b6102a760095481565b61026b61034a366004612726565b610708565b6102a761035d3660046126c5565b610765565b610375610370366004612726565b610770565b604051610277919061277d565b6102a7620f424081565b61026b61039a366004612726565b7f00000000000000000000000000000000000000000000000000000000000000006001600160a01b0390811691161490565b6102a7670de0b6b3a764000081565b6102a7600e5481565b61040b7f000000000000000000000000000000000000000000000000000000000000000081565b6040516001600160a01b039091168152602001610277565b6102a760075481565b6102a761043a366004612726565b6107dc565b7f000000000000000000000000000000000000000000000000000000000000000061040b565b6102a7610473366004612790565b600460209081526000928352604080842090915290825290205481565b610498610898565b604051610277979695949392919061280a565b61040b7f000000000000000000000000000000000000000000000000000000000000000081565b6102ff6104e03660046128bf565b6108de565b61026b6104f33660046126fa565b610ef5565b6102ff6105063660046129cf565b610f20565b6102ff610519366004612a75565b6112ec565b6102a7600081565b61040b7f000000000000000000000000000000000000000000000000000000000000000081565b6102a760085481565b6102ff610564366004612a97565b6113ff565b6102a760065481565b6102a7600d5481565b6102ff61148c565b6102ff6105913660046126fa565b611588565b6105e76105a43660046126c5565b60106020526000908152604090208054600182015460028301546003840154600485015460059095015460ff8516956101009095046001600160a01b0316949087565b6040805197151588526001600160a01b039096166020880152948601939093526060850191909152608084015260a083015260c082015260e001610277565b6102ff6115ad565b6102a77f20296b01d0b6bd176f0c1e29644934c0047abf080dae43609a1bbc09e39bafdb81565b6102a7600b5481565b60006001600160e01b03198216637965db0b60e01b148061068f57506301ffc9a760e01b6001600160e01b03198316145b92915050565b6000828152600260205260409020600101546106b081611684565b6106ba8383611695565b50505050565b6106c861172a565b6001600160a01b0316816001600160a01b0316146106f95760405163334bd91960e11b815260040160405180910390fd5b6107038282611739565b505050565b6001600160a01b03811660009081526011602052604081205460ff168061068f57507f00000000000000000000000000000000000000000000000000000000000000006001600160a01b0316826001600160a01b03161492915050565b600061068f826117c4565b6001600160a01b0381166000908152601260209081526040918290208054835181840281018401909452808452606093928301828280156107d057602002820191906000526020600020905b8154815260200190600101908083116107bc575b50505050509050919050565b6001600160a01b03811660009081526012602090815260408083208054825181850281018501909352808352849383018282801561083957602002820191906000526020600020905b815481526020019060010190808311610825575b5050505050905060005b8151811015610891576010600083838151811061086257610862612ad3565b6020026020010151815260200190815260200160002060010154836108879190612aff565b9250600101610843565b5050919050565b6000606080600080600060606108ac6117f1565b6108b461181e565b60408051600080825260208201909252600f60f81b9b939a50919850469750309650945092509050565b6108e661184b565b8483146109065760405163a9854bc960e01b815260040160405180910390fd5b600061091061172a565b905060005b86811015610eeb57600088888381811061093157610931612ad3565b90506020020160208101906109469190612726565b9050600087878481811061095c5761095c612ad3565b905060200201359050806000036109865760405163e858080360e01b815260040160405180910390fd5b61098f82610708565b6109ac576040516316795e0960e21b815260040160405180910390fd5b8585848181106109be576109be612ad3565b6109d492602060e0909202019081019150612726565b6001600160a01b0316826001600160a01b0316141580610a2f5750858584818110610a0157610a01612ad3565b905060e002016040016020810190610a199190612726565b6001600160a01b0316306001600160a01b031614155b15610a4d57604051634d513e1160e11b815260040160405180910390fd5b7f00000000000000000000000000000000000000000000000000000000000000006001600160a01b0316826001600160a01b031603610ad857610abb6001600160a01b037f000000000000000000000000000000000000000000000000000000000000000016853084611891565b8060066000828254610acd9190612aff565b90915550610cc29050565b60405163e3a24fdb60e01b81526001600160a01b038581166004830152838116602483015282917f00000000000000000000000000000000000000000000000000000000000000009091169063e3a24fdb906044016040805180830381865afa158015610b49573d6000803e3d6000fd5b505050506040513d601f19601f82011682018060405250810190610b6d9190612b12565b6020015160405163e3a24fdb60e01b81526001600160a01b03878116600483015285811660248301527f0000000000000000000000000000000000000000000000000000000000000000169063e3a24fdb906044016040805180830381865afa158015610bde573d6000803e3d6000fd5b505050506040513d601f19601f82011682018060405250810190610c029190612b12565b51610c0d9190612b61565b1015610c2c57604051630c92f50360e11b815260040160405180910390fd5b7f00000000000000000000000000000000000000000000000000000000000000006001600160a01b0316638b6090d2878786818110610c6d57610c6d612ad3565b905060e002016040518263ffffffff1660e01b8152600401610c8f9190612b83565b600060405180830381600087803b158015610ca957600080fd5b505af1158015610cbd573d6000803e3d6000fd5b505050505b610cca61148c565b600080836001600160a01b031663313ce5676040518163ffffffff1660e01b8152600401602060405180830381865afa158015610d0b573d6000803e3d6000fd5b505050506040513d601f19601f82011682018060405250810190610d2f9190612bff565b610d3a90600a612d00565b610d4790620f4240612d0f565b8310610d625760019150610d5f6301e1338042612aff565b90505b6000600e60008154610d7390612d26565b91905081905590506040518060e001604052808415158152602001866001600160a01b0316815260200185815260200160008152602001670de0b6b3a764000060095487610dc19190612d0f565b610dcb9190612d3f565b81526000602080830182905260409283018690528482526010815282822084518154928601516001600160a81b0319909316901515610100600160a81b031916176101006001600160a01b0390931692909202919091178155918301516001830155606083015160028301556080830151600383015560a0830151600483015560c0909201516005918201558054869290610e67908490612aff565b90915550506001600160a01b0380881660008181526012602090815260408083208054600181018255908452919092200184905551918716918391907ff65271afc35201e83c229b7b581d7fde59bfe7b7dd943e8719fc8c5f5ada63f690610ed29089815260200190565b60405180910390a4505060019093019250610915915050565b5050505050505050565b60009182526002602090815260408084206001600160a01b0393909316845291905290205460ff1690565b610f286118f8565b6000610f3261172a565b905060005b82518110156112dd576000838281518110610f5457610f54612ad3565b60200260200101519050610f688382611922565b610f8d5760405163725238c160e11b8152600481018290526024015b60405180910390fd5b60008181526010602052604081206002810154909103610fc3576040516340114e0360e01b815260048101839052602401610f84565b610fcc826119d8565b8015610fdb5750428160040154115b15610ff9576040516337a193d360e21b815260040160405180910390fd5b8054600282015460038301546101009092046001600160a01b03169161101f8786611a31565b7f00000000000000000000000000000000000000000000000000000000000000006001600160a01b0316836001600160a01b0316036110915761108c6001600160a01b037f0000000000000000000000000000000000000000000000000000000000000000168884611a77565b611242565b60405163383da8ed60e21b81526001600160a01b03848116600483015288811660248301527f0000000000000000000000000000000000000000000000000000000000000000169063e0f6a3b490604401602060405180830381865afa1580156110ff573d6000803e3d6000fd5b505050506040513d601f19601f820116820180604052508101906111239190612d61565b61112d9082612aff565b6040516310e059a160e11b81526001600160a01b03858116600483015289811660248301529192507f0000000000000000000000000000000000000000000000000000000000000000909116906321c0b34290604401600060405180830381600087803b15801561119d57600080fd5b505af11580156111b1573d6000803e3d6000fd5b5050604051600162281cd760e21b031981526001600160a01b0386811660048301523060248301528a811660448301527f000000000000000000000000000000000000000000000000000000000000000016925063ff5f8ca49150606401600060405180830381600087803b15801561122957600080fd5b505af115801561123d573d6000803e3d6000fd5b505050505b6112766001600160a01b037f0000000000000000000000000000000000000000000000000000000000000000168883611a77565b826001600160a01b0316876001600160a01b03167fc2b4a290c20fb28939d29f102514fbffd2b73c059ffba8b78250c94161d5fcc684846040516112c4929190918252602082015260400190565b60405180910390a3505060019093019250610f37915050565b50506112e96001600355565b50565b6112f7600033611aa8565b600f5460ff166113e25760078290556113146301e1338083612d3f565b600855600b819055600c81905561132f6301e1338082612aff565b600d55600f805460ff1916600117905560075461139a906001600160a01b037f000000000000000000000000000000000000000000000000000000000000000016907f0000000000000000000000000000000000000000000000000000000000000000903090611891565b600754600d54600c547f5440330a716398b37add80f8f3b93d3b470de160bd35273c5c5f40a656d1d6c26008546040516113d691815260200190565b60405180910390a45050565b6040516384d364e360e01b815260040160405180910390fd5b5050565b60008061141361140d61172a565b84611ae1565b915091508181906114375760405162461bcd60e51b8152600401610f849190612d7a565b506107036114486040850185612d8d565b80806020026020016040519081016040528093929190818152602001838360200280828437600092019190915250611487925050506060860186612d8d565b611baf565b600a544311156115865760006005541180156114aa5750600f5460ff165b15611586576000600d544210156114cf57600b546114c89042612b61565b90506114ec565b600b54600d546114df9190612b61565b600f805460ff1916905590505b6000600854826114fc9190612d0f565b600554909150611514670de0b6b3a764000083612d0f565b61151e9190612d3f565b6009600082825461152f9190612aff565b909155505042600b81905543600a556005546009546040517f943da0a81ca6ad73b5b353da6bfe43af9eab298f2c7c705a365ef5377cde79a49261157b92908252602082015260400190565b60405180910390a250505b565b6000828152600260205260409020600101546115a381611684565b6106ba8383611739565b6115b8600033611aa8565b6006546040516370a0823160e01b81523060048201526115869133916001600160a01b037f000000000000000000000000000000000000000000000000000000000000000016906370a0823190602401602060405180830381865afa158015611625573d6000803e3d6000fd5b505050506040513d601f19601f820116820180604052508101906116499190612d61565b6116539190612b61565b6001600160a01b037f0000000000000000000000000000000000000000000000000000000000000000169190611a77565b6112e98161169061172a565b611aa8565b60006116a18383610ef5565b6117225760008381526002602090815260408083206001600160a01b03861684529091529020805460ff191660011790556116da61172a565b6001600160a01b0316826001600160a01b0316847f2f8788117e7eff1d82e926ec794901d17c78024a50270940304540a733656f0d60405160405180910390a450600161068f565b50600061068f565b6000611734611ddd565b905090565b60006117458383610ef5565b156117225760008381526002602090815260408083206001600160a01b03861684529091529020805460ff1916905561177c61172a565b6001600160a01b0316826001600160a01b0316847ff6391f5c32d9c69d2a47ea670b442974b53935d1edc7fd64eb21e047a839171b60405160405180910390a450600161068f565b600061068f6117d1611e52565b8360405161190160f01b8152600281019290925260228201526042902090565b60606117347f00000000000000000000000000000000000000000000000000000000000000006000611f7d565b60606117347f00000000000000000000000000000000000000000000000000000000000000006001611f7d565b600c5442101561186e5760405163a0899fdd60e01b815260040160405180910390fd5b600d544211156115865760405163533ede5160e11b815260040160405180910390fd5b6040516001600160a01b0384811660248301528381166044830152606482018390526106ba9186918216906323b872dd906084015b604051602081830303815290604052915060e01b6020820180516001600160e01b038381831617835250505050612028565b60026003540361191b57604051633ee5aeb560e01b815260040160405180910390fd5b6002600355565b6001600160a01b03821660009081526012602090815260408083208054825181850281018501909352808352849383018282801561197f57602002820191906000526020600020905b81548152602001906001019080831161196b575b5050505050905060005b81518110156119cd57838282815181106119a5576119a5612ad3565b6020026020010151036119bd5760019250505061068f565b6119c681612d26565b9050611989565b506000949350505050565b600081815260106020526040812080547f00000000000000000000000000000000000000000000000000000000000000006001600160a01b0390811661010090920416148015611a2a5750805460ff16155b9392505050565b600081815260106020526040812080546001600160a81b031916815560018101829055600281018290556003810182905560048101829055600501556113fb828261208b565b6040516001600160a01b0383811660248301526044820183905261070391859182169063a9059cbb906064016118c6565b611ab28282610ef5565b6113fb5760405163e2517d3f60e01b81526001600160a01b038216600482015260248101839052604401610f84565b60006060817fb89cb22cf091ea736d7376247904b200f2ad707ec01c556961bab09586165a4a611b146020860186612726565b611b216040870187612d8d565b611b2e6060890189612d8d565b89608001358a60a00135604051602001611b4f989796959493929190612e09565b6040516020818303038152906040529050611ba28186866020016020810190611b789190612726565b608088013560a0890135611b9260e08b0160c08c01612e5f565b8a60e001358b6101000135612157565b92509250505b9250929050565b82518114611bd05760405163a9854bc960e01b815260040160405180910390fd5b6000611bda61172a565b905060005b8451811015611dd6576000858281518110611bfc57611bfc612ad3565b602002602001015190506000858584818110611c1a57611c1a612ad3565b905060200201359050611c2d8483611922565b611c4d5760405163725238c160e11b815260048101839052602401610f84565b6000828152601060205260409020805460ff168015611c7b5750600d54611c779062278d00612aff565b4211155b15611ca8578060050154421015611ca857604051631ae83d9560e01b815260048101849052602401610f84565b8060010154600003611cd0576040516312cfaa6360e11b815260048101849052602401610f84565b611cd861148c565b6000611ce3846122fe565b600183018054600091829055600580549394509092839290611d06908490612b61565b9250508190555080836002016000828254611d219190612aff565b9091555060009050611d34600284612d3f565b611d3e9084612aff565b905080851115611d6b57604051631c0c60c760e31b81526004810186905260248101829052604401610f84565b60038401859055611d7f4262127500612aff565b600485015560405182815286906001600160a01b038a16907f7fc4727e062e336010f2c282598ef5f14facb3de68cf8195c2f23e1454b2b74e9060200160405180910390a3505060019094019350611bdf92505050565b5050505050565b6000366014336001600160a01b037f000000000000000000000000000000000000000000000000000000000000000016148015611e1a5750808210155b15611e4a57600036611e2c8385612b61565b611e37928290612e7c565b611e4091612ea6565b60601c9250505090565b339250505090565b6000306001600160a01b037f000000000000000000000000000000000000000000000000000000000000000016148015611eab57507f000000000000000000000000000000000000000000000000000000000000000046145b15611ed557507f000000000000000000000000000000000000000000000000000000000000000090565b611734604080517f8b73c3c69bb8fe3d512ecc4cf759cc79239f7b179b0ffacaa9a75d522b39400f60208201527f0000000000000000000000000000000000000000000000000000000000000000918101919091527f000000000000000000000000000000000000000000000000000000000000000060608201524660808201523060a082015260009060c00160405160208183030381529060405280519060200120905090565b606060ff8314611f9757611f908361234e565b905061068f565b818054611fa390612edb565b80601f0160208091040260200160405190810160405280929190818152602001828054611fcf90612edb565b801561201c5780601f10611ff15761010080835404028352916020019161201c565b820191906000526020600020905b815481529060010190602001808311611fff57829003601f168201915b5050505050905061068f565b600061203d6001600160a01b0384168361238d565b905080516000141580156120625750808060200190518101906120609190612f15565b155b1561070357604051635274afe760e01b81526001600160a01b0384166004820152602401610f84565b6001600160a01b0382166000908152601260205260408120905b81548110156106ba57828282815481106120c1576120c1612ad3565b90600052602060002001540361214757815482906120e190600190612b61565b815481106120f1576120f1612ad3565b906000526020600020015482828154811061210e5761210e612ad3565b90600052602060002001819055508180548061212c5761212c612f37565b600190038181906000526020600020016000905590556106ba565b61215081612d26565b90506120a5565b600060606121857f20296b01d0b6bd176f0c1e29644934c0047abf080dae43609a1bbc09e39bafdb89610ef5565b6121ba57505060408051808201909152601081526f24a72b20a624a22fa7a822a920aa27a960811b60208201526000906122f1565b428610156121f457505060408051808201909152601181527014d251d3905515549157d1561412549151607a1b60208201526000906122f1565b6001600160a01b038089166000908152600460209081526040808320938d16835292905290812080549161222783612d26565b9190505587146122645750506040805180820190915260128152714d49534d41544348494e475f4e4f4e43455360701b60208201526000906122f1565b60006122768b805190602001206117c4565b905060006122868288888861239b565b9050896001600160a01b0316816001600160a01b0316146122d857600060405180604001604052806011815260200170494e56414c49445f5349474e415455524560781b8152509350935050506122f1565b6001604051806020016040528060008152509350935050505b9850989650505050505050565b600081815260106020526040812060095460018201548391670de0b6b3a76400009161232a9190612d0f565b6123349190612d3f565b90508160030154816123469190612b61565b949350505050565b6060600061235b836123c9565b604080516020808252818301909252919250600091906020820181803683375050509182525060208101929092525090565b6060611a2a838360006123f1565b6000806000806123ad8888888861248e565b9250925092506123bd828261255d565b50909695505050505050565b600060ff8216601f81111561068f57604051632cd44ac360e21b815260040160405180910390fd5b6060814710156124165760405163cd78605960e01b8152306004820152602401610f84565b600080856001600160a01b031684866040516124329190612f4d565b60006040518083038185875af1925050503d806000811461246f576040519150601f19603f3d011682016040523d82523d6000602084013e612474565b606091505b5091509150612484868383612616565b9695505050505050565b600080807f7fffffffffffffffffffffffffffffff5d576e7357a4501ddfe92f46681b20a08411156124c95750600091506003905082612553565b604080516000808252602082018084528a905260ff891692820192909252606081018790526080810186905260019060a0016020604051602081039080840390855afa15801561251d573d6000803e3d6000fd5b5050604051601f1901519150506001600160a01b03811661254957506000925060019150829050612553565b9250600091508190505b9450945094915050565b600082600381111561257157612571612f69565b0361257a575050565b600182600381111561258e5761258e612f69565b036125ac5760405163f645eedf60e01b815260040160405180910390fd5b60028260038111156125c0576125c0612f69565b036125e15760405163fce698f760e01b815260048101829052602401610f84565b60038260038111156125f5576125f5612f69565b036113fb576040516335e2f38360e21b815260048101829052602401610f84565b60608261262b5761262682612672565b611a2a565b815115801561264257506001600160a01b0384163b155b1561266b57604051639996b31560e01b81526001600160a01b0385166004820152602401610f84565b5080611a2a565b8051156126825780518082602001fd5b604051630a12f52160e11b815260040160405180910390fd5b6000602082840312156126ad57600080fd5b81356001600160e01b031981168114611a2a57600080fd5b6000602082840312156126d757600080fd5b5035919050565b80356001600160a01b03811681146126f557600080fd5b919050565b6000806040838503121561270d57600080fd5b8235915061271d602084016126de565b90509250929050565b60006020828403121561273857600080fd5b611a2a826126de565b60008151808452602080850194506020840160005b8381101561277257815187529582019590820190600101612756565b509495945050505050565b602081526000611a2a6020830184612741565b600080604083850312156127a357600080fd5b6127ac836126de565b915061271d602084016126de565b60005b838110156127d55781810151838201526020016127bd565b50506000910152565b600081518084526127f68160208601602086016127ba565b601f01601f19169290920160200192915050565b60ff60f81b8816815260e06020820152600061282960e08301896127de565b828103604084015261283b81896127de565b606084018890526001600160a01b038716608085015260a0840186905283810360c0850152905061286c8185612741565b9a9950505050505050505050565b60008083601f84011261288c57600080fd5b50813567ffffffffffffffff8111156128a457600080fd5b6020830191508360208260051b8501011115611ba857600080fd5b600080600080600080606087890312156128d857600080fd5b863567ffffffffffffffff808211156128f057600080fd5b6128fc8a838b0161287a565b9098509650602089013591508082111561291557600080fd5b6129218a838b0161287a565b9096509450604089013591508082111561293a57600080fd5b818901915089601f83011261294e57600080fd5b81358181111561295d57600080fd5b8a602060e08302850101111561297257600080fd5b6020830194508093505050509295509295509295565b634e487b7160e01b600052604160045260246000fd5b604051601f8201601f1916810167ffffffffffffffff811182821017156129c7576129c7612988565b604052919050565b600060208083850312156129e257600080fd5b823567ffffffffffffffff808211156129fa57600080fd5b818501915085601f830112612a0e57600080fd5b813581811115612a2057612a20612988565b8060051b9150612a3184830161299e565b8181529183018401918481019088841115612a4b57600080fd5b938501935b83851015612a6957843582529385019390850190612a50565b98975050505050505050565b60008060408385031215612a8857600080fd5b50508035926020909101359150565b600060208284031215612aa957600080fd5b813567ffffffffffffffff811115612ac057600080fd5b82016101208185031215611a2a57600080fd5b634e487b7160e01b600052603260045260246000fd5b634e487b7160e01b600052601160045260246000fd5b8082018082111561068f5761068f612ae9565b600060408284031215612b2457600080fd5b6040516040810181811067ffffffffffffffff82111715612b4757612b47612988565b604052825181526020928301519281019290925250919050565b8181038181111561068f5761068f612ae9565b60ff811681146112e957600080fd5b60e081016001600160a01b0380612b99856126de565b16835280612ba9602086016126de565b16602084015280612bbc604086016126de565b16604084015250606083013560608301526080830135612bdb81612b74565b60ff811660808401525060a083013560a083015260c083013560c083015292915050565b600060208284031215612c1157600080fd5b8151611a2a81612b74565b600181815b80851115612c57578160001904821115612c3d57612c3d612ae9565b80851615612c4a57918102915b93841c9390800290612c21565b509250929050565b600082612c6e5750600161068f565b81612c7b5750600061068f565b8160018114612c915760028114612c9b57612cb7565b600191505061068f565b60ff841115612cac57612cac612ae9565b50506001821b61068f565b5060208310610133831016604e8410600b8410161715612cda575081810a61068f565b612ce48383612c1c565b8060001904821115612cf857612cf8612ae9565b029392505050565b6000611a2a60ff841683612c5f565b808202811582820484141761068f5761068f612ae9565b600060018201612d3857612d38612ae9565b5060010190565b600082612d5c57634e487b7160e01b600052601260045260246000fd5b500490565b600060208284031215612d7357600080fd5b5051919050565b602081526000611a2a60208301846127de565b6000808335601e19843603018112612da457600080fd5b83018035915067ffffffffffffffff821115612dbf57600080fd5b6020019150600581901b3603821315611ba857600080fd5b81835260006001600160fb1b03831115612df057600080fd5b8260051b80836020870137939093016020019392505050565b8881526001600160a01b038816602082015260c060408201819052600090612e34908301888a612dd7565b8281036060840152612e47818789612dd7565b6080840195909552505060a001529695505050505050565b600060208284031215612e7157600080fd5b8135611a2a81612b74565b60008085851115612e8c57600080fd5b83861115612e9957600080fd5b5050820193919092039150565b6bffffffffffffffffffffffff198135818116916014851015612ed35780818660140360031b1b83161692505b505092915050565b600181811c90821680612eef57607f821691505b602082108103612f0f57634e487b7160e01b600052602260045260246000fd5b50919050565b600060208284031215612f2757600080fd5b81518015158114611a2a57600080fd5b634e487b7160e01b600052603160045260246000fd5b60008251612f5f8184602087016127ba565b9190910192915050565b634e487b7160e01b600052602160045260246000fdfea264697066735822122018c0278db7e145c3f352c5eb481a9ee0adcfcff342ae1599232022d0b12bb10f64736f6c63430008170033",
  "devdoc": {
    "errors": {
      "AccessControlBadConfirmation()": [
        {
          "details": "The caller of a function is not the expected one. NOTE: Don't confuse with {AccessControlUnauthorizedAccount}."
        }
      ],
      "AccessControlUnauthorizedAccount(address,bytes32)": [
        {
          "details": "The `account` is missing a role."
        }
      ],
      "AddressEmptyCode(address)": [
        {
          "details": "There's no code at `target` (it is not a contract)."
        }
      ],
      "AddressInsufficientBalance(address)": [
        {
          "details": "The ETH balance of the account is not enough to perform the operation."
        }
      ],
      "ECDSAInvalidSignature()": [
        {
          "details": "The signature derives the `address(0)`."
        }
      ],
      "ECDSAInvalidSignatureLength(uint256)": [
        {
          "details": "The signature has an invalid length."
        }
      ],
      "ECDSAInvalidSignatureS(bytes32)": [
        {
          "details": "The signature has an S value that is in the upper half order."
        }
      ],
      "FailedInnerCall()": [
        {
          "details": "A call to an address target failed. The target may have reverted."
        }
      ],
      "InvalidCalculationReward(uint256,uint256)": [
        {
          "params": {
            "contractCalculation": "The reward calculated by the contract",
            "proofCalculation": "The reward calculated via proof"
          }
        }
      ],
      "InvalidId(uint256)": [
        {
          "params": {
            "id": "The invalid stake ID"
          }
        }
      ],
      "LockedPeriodNotPassed(uint256)": [
        {
          "params": {
            "id": "The ID of the stake with the locked period still active"
          }
        }
      ],
      "NeedToUnstakeFirst(uint256)": [
        {
          "params": {
            "id": "The ID of the stake requiring unstaking"
          }
        }
      ],
      "NothingToUnstake(uint256)": [
        {
          "params": {
            "id": "The ID of the stake that cannot be unstaked"
          }
        }
      ],
      "ReentrancyGuardReentrantCall()": [
        {
          "details": "Unauthorized reentrant call."
        }
      ],
      "SafeERC20FailedOperation(address)": [
        {
          "details": "An operation with an ERC20 token failed."
        }
      ]
    },
    "events": {
      "EIP712DomainChanged()": {
        "details": "MAY be emitted to signal that the domain could have changed."
      },
      "RoleAdminChanged(bytes32,bytes32,bytes32)": {
        "details": "Emitted when `newAdminRole` is set as ``role``'s admin role, replacing `previousAdminRole` `DEFAULT_ADMIN_ROLE` is the starting admin for all roles, despite {RoleAdminChanged} not being emitted signaling this."
      },
      "RoleGranted(bytes32,address,address)": {
        "details": "Emitted when `account` is granted `role`. `sender` is the account that originated the contract call, an admin role bearer except when using {AccessControl-_setupRole}."
      },
      "RoleRevoked(bytes32,address,address)": {
        "details": "Emitted when `account` is revoked `role`. `sender` is the account that originated the contract call:   - if using `revokeRole`, it is the admin role bearer   - if using `renounceRole`, it is the role bearer (i.e. `account`)"
      },
      "Staked(address,uint256,address,uint256)": {
        "params": {
          "amount": "The amount of tokens staked",
          "id": "The ID of the stake",
          "staker": "The address of the user staking the tokens",
          "token": "The address of the token being staked"
        }
      },
      "StakingInitialized(uint256,uint256,uint256,uint256)": {
        "params": {
          "allocationPerSecond": "The amount of tokens allocated per second",
          "endDate": "The end date of the staking",
          "starDate": "The start date of the staking",
          "totalAllocation": "The total amount of tokens allocated"
        }
      },
      "Unstaked(address,uint256,uint256)": {
        "params": {
          "amount": "The amount of tokens unstaked",
          "id": "The ID of the stake being unstaked",
          "staker": "The address of the user unstaking tokens"
        }
      },
      "UpdatedShareReward(uint256,uint256,uint256)": {
        "params": {
          "rewardPerShare": "The updated reward per share value",
          "timestamp": "The time at which the reward per share was updated",
          "totalStakedTokens": "The total number of staked tokens at the time of the update"
        }
      },
      "Withdrawal(address,address,uint256,uint256)": {
        "params": {
          "reward": "The reward earned by the user",
          "stakedTokens": "The amount of staked tokens being withdrawn",
          "staker": "The address of the user withdrawing tokens",
          "token": "The address of the token being withdrawn"
        }
      }
    },
    "kind": "dev",
    "methods": {
      "checkTokenValidity(address)": {
        "details": "Internal function to check if token address is valid",
        "params": {
          "token": "The token of user's stake"
        }
      },
      "constructor": {
        "params": {
          "_teaToken": "The address of the token",
          "_teaVesting": "The address of the vesting contract",
          "_treasury": "The address of the treasury",
          "admin": "The address of the admin",
          "operators": "The list of operators",
          "presaleTokens": "The list of presale tokens",
          "trustedForwarder": "The address of the trusted forwarder"
        }
      },
      "eip712Domain()": {
        "details": "See {IERC-5267}."
      },
      "getRoleAdmin(bytes32)": {
        "details": "Returns the admin role that controls `role`. See {grantRole} and {revokeRole}. To change a role's admin, use {_setRoleAdmin}."
      },
      "getTotalUserStakedTokens(address)": {
        "details": "This function calculates and returns the cumulative total of all tokens staked by the user across different stakes",
        "params": {
          "user": "The address of the user whose total staked tokens are being queried"
        },
        "returns": {
          "totalAmount": "The total amount of tokens the user has staked"
        }
      },
      "getUserIds(address)": {
        "params": {
          "user": "The address of the user whose stake IDs are being queried"
        },
        "returns": {
          "_0": "An array of uint256 representing the stake IDs that belong to the user"
        }
      },
      "grantRole(bytes32,address)": {
        "details": "Grants `role` to `account`. If `account` had not been already granted `role`, emits a {RoleGranted} event. Requirements: - the caller must have ``role``'s admin role. May emit a {RoleGranted} event."
      },
      "hasRole(bytes32,address)": {
        "details": "Returns `true` if `account` has been granted `role`."
      },
      "initializeStaking(uint256,uint256)": {
        "params": {
          "newRewardDistributionStartTime": "The start time of the reward distribution",
          "newTotalAllocation": "The total amount of allocation to be distributed"
        }
      },
      "isTrustedForwarder(address)": {
        "details": "Indicates whether any particular address is the trusted forwarder."
      },
      "renounceRole(bytes32,address)": {
        "details": "Revokes `role` from the calling account. Roles are often managed via {grantRole} and {revokeRole}: this function's purpose is to provide a mechanism for accounts to lose their privileges if they are compromised (such as when a trusted device is misplaced). If the calling account had been revoked `role`, emits a {RoleRevoked} event. Requirements: - the caller must be `callerConfirmation`. May emit a {RoleRevoked} event."
      },
      "revokeRole(bytes32,address)": {
        "details": "Revokes `role` from `account`. If `account` had been granted `role`, emits a {RoleRevoked} event. Requirements: - the caller must have ``role``'s admin role. May emit a {RoleRevoked} event."
      },
      "stake(address[],uint256[],(address,address,address,uint256,uint8,bytes32,bytes32)[])": {
        "details": "This function handles the staking process for multiple tokens at once, validating inputs and processing off-chain data",
        "params": {
          "amounts": "An array of amounts, corresponding to the number of tokens the user is staking for each token in `tokens`",
          "offChainData": "An OffChainStruct containing additional off-chain data related to the staking process",
          "tokens": "An array of addresses representing the tokens that the user wishes to stake"
        }
      },
      "supportsInterface(bytes4)": {
        "details": "See {IERC165-supportsInterface}."
      },
      "trustedForwarder()": {
        "details": "Returns the address of the trusted forwarder."
      },
      "unstake((address,address,uint256[],uint256[],uint256,uint256,uint8,bytes32,bytes32))": {
        "details": "This function processes the unstaking request and adjusts the user's stake accordingly",
        "params": {
          "unstakeParams": "A struct containing the parameters for the unstaking process, such as the token, amount, and other necessary details"
        }
      },
      "updateRewardPerShare()": {
        "details": "This function recalculates and updates the reward per share value, which affects the rewards distribution for all users"
      },
      "withdraw(uint256[])": {
        "details": "This function handles the withdrawal of tokens and rewards while ensuring non-reentrant security",
        "params": {
          "ids": "An array of stake IDs representing the specific stakes the user wishes to withdraw"
        }
      }
    },
    "title": "TeaStaking",
    "version": 1
  },
  "userdoc": {
    "errors": {
      "AddressesMismatch()": [
        {
          "notice": "Error indicating that the provided addresses do not match the addresses from off-chain data"
        }
      ],
      "ClaimCooldownNotPassed()": [
        {
          "notice": "Error indicating that the claim cooldown period has not passed"
        }
      ],
      "InvalidArrayLengths()": [
        {
          "notice": "Error indicating that the provided array lengths are invalid"
        }
      ],
      "InvalidCalculationReward(uint256,uint256)": [
        {
          "notice": "Error indicating a mismatch in reward calculations between proof and contract"
        }
      ],
      "InvalidId(uint256)": [
        {
          "notice": "Error indicating that the provided stake ID is invalid"
        }
      ],
      "LockedPeriodNotPassed(uint256)": [
        {
          "notice": "Error indicating that the locked period has not passed for the given stake ID"
        }
      ],
      "NeedToUnstakeFirst(uint256)": [
        {
          "notice": "Error indicating the user needs to unstake the tokens first before performing another action"
        }
      ],
      "NoZeroAddress()": [
        {
          "notice": "Error indicating that the provided address is the zero address"
        }
      ],
      "NoZeroAmount()": [
        {
          "notice": "Error indicating that the amount of tokens to stake cannot be zero"
        }
      ],
      "NotEnoughLockedTokens()": [
        {
          "notice": "Error indicating that the user does not have enough locked tokens to perform an action"
        }
      ],
      "NothingToUnstake(uint256)": [
        {
          "notice": "Error indicating there is nothing to unstake for the given stake ID"
        }
      ],
      "OnlyValidToken()": [
        {
          "notice": "Error indicating that only valid tokens are accepted for staking"
        }
      ],
      "StakingAlreadyInitialized()": [
        {
          "notice": "Error indicating that staking has already been initialized"
        }
      ],
      "StakingFinished()": [
        {
          "notice": "Error indicating that staking has already finished"
        }
      ],
      "StakingNotStarted()": [
        {
          "notice": "Error indicating that staking has not yet started"
        }
      ],
      "UserAlreadyStakedWithThisToken()": [
        {
          "notice": "Error indicating that the user has already staked tokens with the specified token"
        }
      ],
      "WrongDecimalNumber()": [
        {
          "notice": "Error indicating that the provided decimal number is invalid"
        }
      ]
    },
    "events": {
      "Staked(address,uint256,address,uint256)": {
        "notice": "Emitted when a user stakes tokens"
      },
      "StakingInitialized(uint256,uint256,uint256,uint256)": {
        "notice": "Emitted when the staking contract is initialized"
      },
      "Unstaked(address,uint256,uint256)": {
        "notice": "Emitted when a user unstakes tokens"
      },
      "UpdatedShareReward(uint256,uint256,uint256)": {
        "notice": "Emitted when the reward per share is updated"
      },
      "Withdrawal(address,address,uint256,uint256)": {
        "notice": "Emitted when a user withdraws staked tokens along with rewards"
      }
    },
    "kind": "user",
    "methods": {
      "ACCUMULATED_PRECISION()": {
        "notice": "The precision of the accumulated rewards"
      },
      "ONE_YEAR()": {
        "notice": "1 year in days"
      },
      "VIP_AMOUNT()": {
        "notice": "The amount of VIP tokens, 1 million"
      },
      "allocationPerSecond()": {
        "notice": "The amount of allocation per second"
      },
      "constructor": {
        "notice": "Constructor of the contract"
      },
      "counter()": {
        "notice": "The counter for stake IDs"
      },
      "emergencyWithdraw()": {
        "notice": "Allows the admin to withdraw all allocation from contract"
      },
      "endDate()": {
        "notice": "The end date of the staking"
      },
      "getTotalUserStakedTokens(address)": {
        "notice": "Returns the total amount of tokens staked by a specific user"
      },
      "getUserIds(address)": {
        "notice": "Returns an array of stake IDs associated with a specific user"
      },
      "initializeStaking(uint256,uint256)": {
        "notice": "Allows the admin to initialize the staking"
      },
      "lastRewardBlockNumber()": {
        "notice": "The block number of the last reward"
      },
      "lastUpdatedTimestamp()": {
        "notice": "The timestamp of the last reward"
      },
      "rewardPerShare()": {
        "notice": "The amount of rewards per share"
      },
      "stake(address[],uint256[],(address,address,address,uint256,uint8,bytes32,bytes32)[])": {
        "notice": "Allows a user to stake multiple tokens with specified amounts"
      },
      "stakes(uint256)": {
        "notice": "The mapping of each stake"
      },
      "stakingRun()": {
        "notice": "The state of the staking"
      },
      "startDate()": {
        "notice": "The start date of the staking"
      },
      "teaToken()": {
        "notice": "The address of the Tea token"
      },
      "teaVesting()": {
        "notice": "The address of the Tea vesting contract"
      },
      "totalAllocation()": {
        "notice": "The amount of total allocation"
      },
      "totalStakedTea()": {
        "notice": "The amount of total staked Tea"
      },
      "totalStakedTokens()": {
        "notice": "The amount of total staked tokens"
      },
      "treasury()": {
        "notice": "The address of the treasury"
      },
      "unstake((address,address,uint256[],uint256[],uint256,uint256,uint8,bytes32,bytes32))": {
        "notice": "Allows a user to unstake their staked tokens based on specified parameters"
      },
      "updateRewardPerShare()": {
        "notice": "Updates the reward per share for all staked tokens in the contract"
      },
      "withdraw(uint256[])": {
        "notice": "Allows a user to withdraw their staked tokens and rewards for multiple stake IDs"
      }
    },
    "notice": "The contract which allowing users to stake Tea and presale tokens, earn allocationrewards, and manage theirs stakes",
    "version": 1
  },
  "storageLayout": {
    "storage": [
      {
        "astId": 2295,
        "contract": "contracts/TeaStaking.sol:TeaStaking",
        "label": "_nameFallback",
        "offset": 0,
        "slot": "0",
        "type": "t_string_storage"
      },
      {
        "astId": 2297,
        "contract": "contracts/TeaStaking.sol:TeaStaking",
        "label": "_versionFallback",
        "offset": 0,
        "slot": "1",
        "type": "t_string_storage"
      },
      {
        "astId": 26,
        "contract": "contracts/TeaStaking.sol:TeaStaking",
        "label": "_roles",
        "offset": 0,
        "slot": "2",
        "type": "t_mapping(t_bytes32,t_struct(RoleData)21_storage)"
      },
      {
        "astId": 1270,
        "contract": "contracts/TeaStaking.sol:TeaStaking",
        "label": "_status",
        "offset": 0,
        "slot": "3",
        "type": "t_uint256"
      },
      {
        "astId": 3777,
        "contract": "contracts/TeaStaking.sol:TeaStaking",
        "label": "operatorUserNonces",
        "offset": 0,
        "slot": "4",
        "type": "t_mapping(t_address,t_mapping(t_address,t_uint256))"
      },
      {
        "astId": 4025,
        "contract": "contracts/TeaStaking.sol:TeaStaking",
        "label": "totalStakedTokens",
        "offset": 0,
        "slot": "5",
        "type": "t_uint256"
      },
      {
        "astId": 4028,
        "contract": "contracts/TeaStaking.sol:TeaStaking",
        "label": "totalStakedTea",
        "offset": 0,
        "slot": "6",
        "type": "t_uint256"
      },
      {
        "astId": 4031,
        "contract": "contracts/TeaStaking.sol:TeaStaking",
        "label": "totalAllocation",
        "offset": 0,
        "slot": "7",
        "type": "t_uint256"
      },
      {
        "astId": 4034,
        "contract": "contracts/TeaStaking.sol:TeaStaking",
        "label": "allocationPerSecond",
        "offset": 0,
        "slot": "8",
        "type": "t_uint256"
      },
      {
        "astId": 4037,
        "contract": "contracts/TeaStaking.sol:TeaStaking",
        "label": "rewardPerShare",
        "offset": 0,
        "slot": "9",
        "type": "t_uint256"
      },
      {
        "astId": 4040,
        "contract": "contracts/TeaStaking.sol:TeaStaking",
        "label": "lastRewardBlockNumber",
        "offset": 0,
        "slot": "10",
        "type": "t_uint256"
      },
      {
        "astId": 4043,
        "contract": "contracts/TeaStaking.sol:TeaStaking",
        "label": "lastUpdatedTimestamp",
        "offset": 0,
        "slot": "11",
        "type": "t_uint256"
      },
      {
        "astId": 4046,
        "contract": "contracts/TeaStaking.sol:TeaStaking",
        "label": "startDate",
        "offset": 0,
        "slot": "12",
        "type": "t_uint256"
      },
      {
        "astId": 4049,
        "contract": "contracts/TeaStaking.sol:TeaStaking",
        "label": "endDate",
        "offset": 0,
        "slot": "13",
        "type": "t_uint256"
      },
      {
        "astId": 4052,
        "contract": "contracts/TeaStaking.sol:TeaStaking",
        "label": "counter",
        "offset": 0,
        "slot": "14",
        "type": "t_uint256"
      },
      {
        "astId": 4064,
        "contract": "contracts/TeaStaking.sol:TeaStaking",
        "label": "stakingRun",
        "offset": 0,
        "slot": "15",
        "type": "t_bool"
      },
      {
        "astId": 4070,
        "contract": "contracts/TeaStaking.sol:TeaStaking",
        "label": "stakes",
        "offset": 0,
        "slot": "16",
        "type": "t_mapping(t_uint256,t_struct(Stake)5364_storage)"
      },
      {
        "astId": 4075,
        "contract": "contracts/TeaStaking.sol:TeaStaking",
        "label": "validTokens",
        "offset": 0,
        "slot": "17",
        "type": "t_mapping(t_address,t_bool)"
      },
      {
        "astId": 4081,
        "contract": "contracts/TeaStaking.sol:TeaStaking",
        "label": "userIds",
        "offset": 0,
        "slot": "18",
        "type": "t_mapping(t_address,t_array(t_uint256)dyn_storage)"
      }
    ],
    "types": {
      "t_address": {
        "encoding": "inplace",
        "label": "address",
        "numberOfBytes": "20"
      },
      "t_array(t_uint256)dyn_storage": {
        "base": "t_uint256",
        "encoding": "dynamic_array",
        "label": "uint256[]",
        "numberOfBytes": "32"
      },
      "t_bool": {
        "encoding": "inplace",
        "label": "bool",
        "numberOfBytes": "1"
      },
      "t_bytes32": {
        "encoding": "inplace",
        "label": "bytes32",
        "numberOfBytes": "32"
      },
      "t_mapping(t_address,t_array(t_uint256)dyn_storage)": {
        "encoding": "mapping",
        "key": "t_address",
        "label": "mapping(address => uint256[])",
        "numberOfBytes": "32",
        "value": "t_array(t_uint256)dyn_storage"
      },
      "t_mapping(t_address,t_bool)": {
        "encoding": "mapping",
        "key": "t_address",
        "label": "mapping(address => bool)",
        "numberOfBytes": "32",
        "value": "t_bool"
      },
      "t_mapping(t_address,t_mapping(t_address,t_uint256))": {
        "encoding": "mapping",
        "key": "t_address",
        "label": "mapping(address => mapping(address => uint256))",
        "numberOfBytes": "32",
        "value": "t_mapping(t_address,t_uint256)"
      },
      "t_mapping(t_address,t_uint256)": {
        "encoding": "mapping",
        "key": "t_address",
        "label": "mapping(address => uint256)",
        "numberOfBytes": "32",
        "value": "t_uint256"
      },
      "t_mapping(t_bytes32,t_struct(RoleData)21_storage)": {
        "encoding": "mapping",
        "key": "t_bytes32",
        "label": "mapping(bytes32 => struct AccessControl.RoleData)",
        "numberOfBytes": "32",
        "value": "t_struct(RoleData)21_storage"
      },
      "t_mapping(t_uint256,t_struct(Stake)5364_storage)": {
        "encoding": "mapping",
        "key": "t_uint256",
        "label": "mapping(uint256 => struct ITeaStaking.Stake)",
        "numberOfBytes": "32",
        "value": "t_struct(Stake)5364_storage"
      },
      "t_string_storage": {
        "encoding": "bytes",
        "label": "string",
        "numberOfBytes": "32"
      },
      "t_struct(RoleData)21_storage": {
        "encoding": "inplace",
        "label": "struct AccessControl.RoleData",
        "members": [
          {
            "astId": 18,
            "contract": "contracts/TeaStaking.sol:TeaStaking",
            "label": "hasRole",
            "offset": 0,
            "slot": "0",
            "type": "t_mapping(t_address,t_bool)"
          },
          {
            "astId": 20,
            "contract": "contracts/TeaStaking.sol:TeaStaking",
            "label": "adminRole",
            "offset": 0,
            "slot": "1",
            "type": "t_bytes32"
          }
        ],
        "numberOfBytes": "64"
      },
      "t_struct(Stake)5364_storage": {
        "encoding": "inplace",
        "label": "struct ITeaStaking.Stake",
        "members": [
          {
            "astId": 5351,
            "contract": "contracts/TeaStaking.sol:TeaStaking",
            "label": "vip",
            "offset": 0,
            "slot": "0",
            "type": "t_bool"
          },
          {
            "astId": 5353,
            "contract": "contracts/TeaStaking.sol:TeaStaking",
            "label": "token",
            "offset": 1,
            "slot": "0",
            "type": "t_address"
          },
          {
            "astId": 5355,
            "contract": "contracts/TeaStaking.sol:TeaStaking",
            "label": "stakedTokens",
            "offset": 0,
            "slot": "1",
            "type": "t_uint256"
          },
          {
            "astId": 5357,
            "contract": "contracts/TeaStaking.sol:TeaStaking",
            "label": "availableTokens",
            "offset": 0,
            "slot": "2",
            "type": "t_uint256"
          },
          {
            "astId": 5359,
            "contract": "contracts/TeaStaking.sol:TeaStaking",
            "label": "rewardDebt",
            "offset": 0,
            "slot": "3",
            "type": "t_uint256"
          },
          {
            "astId": 5361,
            "contract": "contracts/TeaStaking.sol:TeaStaking",
            "label": "claimCooldown",
            "offset": 0,
            "slot": "4",
            "type": "t_uint256"
          },
          {
            "astId": 5363,
            "contract": "contracts/TeaStaking.sol:TeaStaking",
            "label": "lockedPeriod",
            "offset": 0,
            "slot": "5",
            "type": "t_uint256"
          }
        ],
        "numberOfBytes": "192"
      },
      "t_uint256": {
        "encoding": "inplace",
        "label": "uint256",
        "numberOfBytes": "32"
      }
    }
  }
}